:100000000C9463000C948B000C948B000C948B006C
:100010000C948B000C948B000C948B000C948B0034
:100020000C948B000C948B000C948B000C946C0142
:100030000C948B000C948B000C948B000C948B0014
:100040000C945E030C948B000C941D060C945906C2
:100050000C948B000C948B000C948B000C948B00F4
:100060000C948B000C948B00000000070002010030
:100070000003040600000000000000000102040864
:100080001020408001020408102001020408102002
:10009000040404040404040402020202020203032E
:1000A00003030303000000002300260029000000D2
:1000B0000000250028002B0000000000240027007D
:1000C0002A006401140711241FBECFEFD8E0DEBF61
:1000D000CDBF11E0A0E0B1E0E8E4F0E102C005909E
:1000E0000D92A436B107D9F712E0A4E6B1E001C041
:1000F0001D92A134B107E1F710E0C6ECD0E004C0D6
:100100002297FE010E941208C23CD107C9F70E9443
:1001100074050C9422080C940000CF93DF93C0E088
:10012000D1E061E088810E945D0460E088810E94E6
:100130009504C6E0D1E061E088810E945D0460E042
:1001400088810E94950460E08EE00E945D0440E892
:1001500055E260E070E08AE991E00E9494066091C7
:1001600004017091050187E691E00E94C702609149
:100170000A0170910B0187E691E00E9400036091F3
:1001800002017091030184E691E00E94C702609130
:1001900008017091090184E691E00E94000362E386
:1001A00070E080E090E0DF91CF910C94D203CF9388
:1001B000DF93C0E0D1E061E088810E94950460EDAA
:1001C00077E080E090E00E94D20360E08881DF91D8
:1001D000CF910C94950460910E0170910F0187E608
:1001E00091E00E94000360ED77E080E090E00E94E3
:1001F000D20360910A0170910B0187E691E00C94A3
:10020000000360910C0170910D0187E691E00E945E
:10021000000360ED77E080E090E00E94D2036091FF
:100220000A0170910B0187E691E00C9400038AE9C2
:1002300091E00E948105892B09F445C08AE991E08B
:100240000E94B00580936A0160E171E08AE991E063
:100250000E942D0560916A018AE991E00E94600583
:1002600080916A01823749F46BE171E08AE991E09B
:100270000E944C050E94D70024C0853749F46EE2E5
:1002800071E08AE991E00E944C050E94EB0019C0E0
:10029000843649F460E471E08AE991E00E944C05FB
:1002A0000E9401010EC0863661F4809106010E9411
:1002B000CC0461E0892B09F060E0809106010E9486
:1002C000950410926A01089587E691E00E942A023F
:1002D00084E691E00C942A021F920F920FB60F92BF
:1002E00011242F933F934F935F936F937F938F933B
:1002F0009F93AF93BF93EF93FF9380916C0187FF20
:1003000005C010928500109284001AC020916C01E3
:10031000332727FD309580916B0190E0281739072E
:100320007CF480916C01992787FD9095FC01EE0F7C
:10033000FF1FE80FF91FE359FE4F808186FD37C08C
:1003400080916C018F5F80936C0120916C01332749
:1003500027FD309580916B0190E028173907CCF587
:1003600080916C018C30F4F134C080916C0199273C
:1003700087FD9095FC01EE0FFF1FE80FF91FE35971
:10038000FE4F808161E08F730E94950452C080E42B
:100390009CE905C08091840090918500049690931B
:1003A0008900809388008FEF80936C0142C0809118
:1003B0006C01992787FD9095FC01EE0FFF1FE80F58
:1003C000F91FE359FE4F808160E08F730E9495040E
:1003D000B7CF8091840090918500049680349C4929
:1003E000B0F2D8CF809184009091850020916C016B
:1003F000332727FD3095F901EE0FFF1FE20FF31FA2
:10040000E359FE4F21813281820F931F909389001F
:100410008093880080916C01992787FD9095FC015D
:10042000EE0FFF1FE80FF91FE359FE4F808186FD95
:100430009CCFFF91EF91BF91AF919F918F917F9151
:100440006F915F914F913F912F910F900FBE0F9041
:100450001F90189520916B012C30A0F4FC01208393
:10046000822F8F5F80936B01822F90E0FC01EE0F53
:10047000FF1FE80FF91FE359FE4F88EB9BE09283C3
:10048000818308952FEFFC0120830895DF92EF927E
:10049000FF920F931F93CF93DF93EC01D62E7A0137
:1004A000890188818C3008F065C061E08D2D0E9443
:1004B0005D048881A82FB0E0FD01EE0FFF1FEA0F59
:1004C000FB1FE359FE4F2D2D2F739081907C922BB3
:1004D000908360E272E06E197F0977FF02C06D5F62
:1004E0007F4F7595679575956795698340E659E0E7
:1004F000401B510B57FF02C04D5F5F4F559547950D
:10050000559547954A836CE00E94BB079CE0899F04
:10051000B001112420E030E0A901460F571FFA0175
:10052000EE0FFF1FE40FF51FE359FE4F908196FD7C
:1005300015C02F5F3F4F2C30310571F71DC0109251
:10054000800082E0809381001092850010928400E8
:10055000B19A80916F00826080936F00888190E0F3
:10056000FC01EE0FFF1FE80FF91FE359FE4F8081DA
:1005700080648083888103C0882309F3EFCFDF91F3
:10058000CF911F910F91FF90EF90DF90089520E69B
:1005900039E040E252E00C944602FC0180818C304C
:1005A00070F5918128E830E0291B310997FD3395DA
:1005B000220F331F220F331F621773077CF09281C3
:1005C00028E532E0291B310997FD3395220F331FAF
:1005D000220F331F621773070CF49B014FB7F89477
:1005E00090E0FC01EE0FFF1FE80FF91FE359FE4FEB
:1005F00022503109220F331F328321834FBF0895C8
:10060000AF92BF92CF92DF92EF92FF920F931F9320
:10061000CF93DF93EC01603282E078070CF041C0A9
:1006200077FD04C0653B710524F405C060E070E00F
:1006300002C064EB70E0298188E890E0821B910998
:1006400027FD9395880F991F880F991F5C01CC2473
:10065000B7FCC094DC2C882777FD8095982F2A81E1
:1006600048E552E0421B510927FD5395440F551FA1
:10067000440F551F8A01222717FD2095322F3F93E3
:100680002F931F930F9314EBE12EF12C00E010E059
:1006900020E030E0A9010E9464070F900F900F90B6
:1006A0000F90CE01DF91CF911F910F91FF90EF90AE
:1006B000DF90CF90BF90AF900C94CD021F920F921D
:1006C0000FB60F9211242F933F938F939F93AF9365
:1006D000BF938091910190919201A0919301B0916B
:1006E000940130919901232F2D5F2D3720F401962D
:1006F000A11DB11D05C0232F2A570296A11DB11DB2
:10070000209399018093910190939201A09393017A
:10071000B09394018091950190919601A0919701D9
:10072000B09198010196A11DB11D80939501909300
:100730009601A0939701B0939801BF91AF919F91BB
:100740008F913F912F910F900FBE0F901F90189592
:100750000F931F939FB7F894009195011091960104
:10076000209197013091980186B5A89B06C08F3FD4
:1007700021F00F5F1F4F2F4F3F4F9FBF322F212F71
:10078000102F0027080F111D211D311D42E0000F01
:10079000111F221F331F4A95D1F7B801C9011F91BC
:1007A0000F910895CF92DF92EF92FF92CF93DF9354
:1007B0006B017C010E94A803EB010EC00E94A803FC
:1007C0006C1B7D0B683E734038F081E0C81AD1087D
:1007D000E108F108C851DC4FC114D104E104F1046F
:1007E00069F7DF91CF91FF90EF90DF90CF90089560
:1007F000789484B5826084BD84B5816084BD85B5FC
:10080000826085BD85B5816085BDEEE6F0E08081C2
:1008100081608083E1E8F0E01082808182608083E3
:10082000808181608083E0E8F0E080818160808366
:10083000E1EBF0E0808184608083E0EBF0E0808198
:1008400081608083EAE7F0E080818460808380813A
:1008500082608083808181608083808180688083E2
:100860001092C1000895833069F028F48130A1F01E
:10087000823011F514C08630B1F08730C1F0843079
:10088000D9F404C0809180008F7703C080918000EC
:100890008F7D80938000089584B58F7702C084B5E2
:1008A0008F7D84BD08958091B0008F7703C08091C3
:1008B000B0008F7D8093B0000895CF93DF9390E0D8
:1008C000FC01E458FF4F4491FC01E057FF4F849135
:1008D000882341F190E0880F991FFC01E854FF4FF5
:1008E00025913491D90182559F4FFC0185919491B6
:1008F000C82FD92F9FB7F8948C91611106C04095ED
:1009000084238C938881842308C0623041F4242F8F
:10091000209582238C938881842B888302C0842B2A
:100920008C939FBFDF91CF9108950F931F93CF9327
:10093000DF931F92CDB7DEB7282F30E0F901E859D9
:10094000FF4F8491F901E458FF4F1491F901E057EA
:10095000FF4F04910023D1F0882321F069830E9486
:1009600033046981E02FF0E0EE0FFF1FE255FF4FE7
:1009700085919491DC019FB7F8948C91611103C02B
:100980001095812301C0812B8C939FBF0F90DF9125
:10099000CF911F910F910895CF93DF93282F30E0CF
:1009A000F901E859FF4F8491F901E458FF4FD491C0
:1009B000F901E057FF4FC491CC2389F081110E94C7
:1009C0003304EC2FF0E0EE0FFF1FEC55FF4F859145
:1009D0009491DC018C918D2321E030E011F420E032
:1009E00030E0C901DF91CF910895CF92DF92EF926D
:1009F000FF920F931F93CF93DF936C01EB017A016A
:100A0000E60EF71E00E010E00BC06991D601ED91F3
:100A1000FC910190F081E02DC6010995080F191F86
:100A2000CE15DF0591F7C801DF91CF911F910F918E
:100A3000FF90EF90DF90CF900895DB010D900020A4
:100A4000E9F7AD0141505109461B570BDC01ED910F
:100A5000FC910280F381E02D09940C941D05DC01CA
:100A6000ED91FC910190F081E02D09940F931F937B
:100A7000CF93DF93EC016DE00E942F058C016AE0BB
:100A8000CE010E942F059C01200F311FC901DF916B
:100A9000CF911F910F9108950F931F93CF93DF93E1
:100AA000EC010E941D058C01CE010E9436059801C3
:100AB000280F391FC901DF91CF911F910F91089520
:100AC0000F931F93CF93DF93EC010E942F058C01AE
:100AD000CE010E9436059C01200F311FC901DF9114
:100AE000CF911F910F9108950E94F8030E948D00ED
:100AF000C0E5D6E00E9417012097E1F30E9450065E
:100B0000F9CFFC0184859585FC01E05CFF4F2081D5
:100B10003181FC01EE5BFF4F80819181281B390BF5
:100B20002F733327C9010895FC0184859585FC0145
:100B3000E05CFF4F40815181FC01EE5BFF4F208163
:100B400031814217530741F00190F081E02DE80F09
:100B5000F91F208130E002C02FEF3FEFC901089557
:100B6000FC0184859585FC01E05CFF4F408151814B
:100B7000FC01EE5BFF4F208131814217530781F06A
:100B8000A081B181A80FB91F8C91208131812F5F85
:100B90003F4F2F73332731832083282F30E002C04B
:100BA0002FEF3FEFC9010895FC0186859785FC0171
:100BB000E05CFF4FDC01AE5BBF4F408151812D9166
:100BC0003C91119742175307C1F70895CF93DF93D4
:100BD000FC0186859785DC01A05CBF4F2D913C917F
:100BE00011972F5F3F4F2F733327EC01CE5BDF4F01
:100BF0004881598124173507D9F30D90BC91A02D58
:100C0000A80FB91F6C93A685B785A05CBF4F11963E
:100C10003C932E93A689B7892C9181E090E0058CB6
:100C200002C0880F991F0A94E2F7282B2C9381E0C9
:100C300090E0DF91CF91089508951F920F920FB623
:100C40000F9211242F933F934F938F939F93EF9382
:100C5000FF934091C60080913D0290913E02019623
:100C60008F73992720913F0230914002821793079A
:100C700059F0E0913D02F0913E02E350FE4F408377
:100C800090933E0280933D02FF91EF919F918F914F
:100C90004F913F912F910F900FBE0F901F9018957D
:100CA0008AE991E00E948105892B11F00C941C06C1
:100CB00008951F920F920FB60F9211242F933F9316
:100CC0008F939F93EF93FF932091F9013091FA0155
:100CD0008091FB019091FC012817390731F4809134
:100CE000C1008F7D8093C10014C0E091FB01F091A1
:100CF000FC01E754FE4F20818091FB019091FC01A3
:100D000001968F7399279093FC018093FB012093A8
:100D1000C600FF91EF919F918F913F912F910F907E
:100D20000FBE0F901F901895CF92DF92EF92FF9217
:100D3000CF93DF93EC016A017B01411581EE5807E7
:100D400061057105F9F0EC89FD8981E090E00E8C78
:100D500002C0880F991F0A94E2F7808360E079E06F
:100D60008DE390E0A70196010E94C7072150310949
:100D7000410951095695479537952795211580E1E9
:100D8000380798F0EC89FD89108260E874E88EE1FC
:100D900090E0A70196010E94C7072150310941093F
:100DA00051095695479537952795E889F9893083F4
:100DB000EA89FB892083EE89FF89408181E090E008
:100DC0009C010A8C02C0220F331F0A94E2F7422BC7
:100DD0004083EE89FF8940819C010B8C02C0220F69
:100DE000331F0A94E2F7422B4083EE89FF8940814A
:100DF0009C010C8C02C0220F331F0A94E2F7422B95
:100E00004083EE89FF8920810D8C02C0880F991FD5
:100E10000A94E2F7809582238083DF91CF91FF903F
:100E2000EF90DF90CF90089510929D0110929C0159
:100E300088EE93E0A0E0B0E080939E0190939F0144
:100E4000A093A001B093A10188E591E090939B014C
:100E500080939A018DEF91E09093A7018093A60172
:100E600089EB91E09093A9018093A80185EC90E033
:100E70009093AB018093AA0184EC90E09093AD0134
:100E80008093AC0180EC90E09093AF018093AE0131
:100E900081EC90E09093B1018093B00186EC90E0FA
:100EA0009093B3018093B20184E08093B40183E016
:100EB0008093B50187E08093B60185E08093B70108
:100EC00081E08093B80108954F925F926F927F9274
:100ED000AF92BF92CF92DF92EF92FF920F931F9348
:100EE000CF93DF93CDB7DEB729013A01621B730BB5
:100EF000840B950B29893A894B895C892A193B090E
:100F00004C095D09298B3A8B4B8B5C8B9B01AC01A7
:100F100069897A898B899C890E94AB07E418F50856
:100F200006091709A80197010E94E9072A0D3B1D30
:100F30004C1D5D1DB901CA01DF91CF911F910F9129
:100F4000FF90EF90DF90CF90BF90AF907F906F9029
:100F50005F904F900895DB018F939F930E94050847
:100F6000BF91AF91A29F800D911DA39F900DB29F45
:100F7000900D11240895991B79E004C0991F9617CC
:100F800008F0961B881F7A95C9F780950895A1E20D
:100F90001A2EAA1BBB1BFD010DC0AA1FBB1FEE1FF3
:100FA000FF1FA217B307E407F50720F0A21BB30B3E
:100FB000E40BF50B661F771F881F991F1A9469F7BA
:100FC00060957095809590959B01AC01BD01CF0116
:100FD0000895052E97FB16F4009407D057FD0DD009
:100FE0000E94C70707FC09D07EF490958095709504
:100FF00061957F4F8F4F9F4F089550954095309545
:1010000021953F4F4F4F5F4F08950E941608A59FAF
:10101000900DB49F900DA49F800D911D11240895F3
:10102000EE0FFF1F0590F491E02D0994A29FB001EF
:10103000B39FC001A39F01D0B29F700D811D1124E9
:08104000911D0895F894FFCF03
:101048000B000A0009000300A0005A000A00AA00C9
:1010580052656369657665643A20007265736574E4
:1010680074696E67207072696E746572210070759C
:101078007368696E6720736572766F2075702100DA
:1010880070757368696E6720736572766F20646F18
:10109800776E210000000000E605F5048105B00523
:0410A8009405D405D2
:00000001FF
